{
  "_format": "hh-sol-artifact-1",
  "contractName": "MarksheetVerification",
  "sourceName": "contracts/MarksheetVerification.sol",
  "abi": [
    {
      "anonymous": false,
      "inputs": [
        {
          "indexed": false,
          "internalType": "uint256",
          "name": "totalUploaded",
          "type": "uint256"
        }
      ],
      "name": "BatchUploadCompleted",
      "type": "event"
    },
    {
      "anonymous": false,
      "inputs": [
        {
          "indexed": true,
          "internalType": "bytes32",
          "name": "marksheetHash",
          "type": "bytes32"
        },
        {
          "indexed": false,
          "internalType": "string",
          "name": "studentName",
          "type": "string"
        },
        {
          "indexed": false,
          "internalType": "string",
          "name": "prn",
          "type": "string"
        },
        {
          "indexed": false,
          "internalType": "string",
          "name": "ipfsHash",
          "type": "string"
        }
      ],
      "name": "MarksheetUploaded",
      "type": "event"
    },
    {
      "anonymous": false,
      "inputs": [
        {
          "indexed": true,
          "internalType": "address",
          "name": "verifier",
          "type": "address"
        },
        {
          "indexed": true,
          "internalType": "bytes32",
          "name": "marksheetHash",
          "type": "bytes32"
        },
        {
          "indexed": false,
          "internalType": "uint256",
          "name": "timestamp",
          "type": "uint256"
        }
      ],
      "name": "VerificationAttempt",
      "type": "event"
    },
    {
      "inputs": [
        {
          "internalType": "bytes32",
          "name": "_providedHash",
          "type": "bytes32"
        }
      ],
      "name": "getMarksheetDetails",
      "outputs": [
        {
          "internalType": "string",
          "name": "",
          "type": "string"
        },
        {
          "internalType": "string",
          "name": "",
          "type": "string"
        },
        {
          "internalType": "string",
          "name": "",
          "type": "string"
        }
      ],
      "stateMutability": "view",
      "type": "function"
    },
    {
      "inputs": [
        {
          "internalType": "bytes32",
          "name": "",
          "type": "bytes32"
        }
      ],
      "name": "marksheets",
      "outputs": [
        {
          "internalType": "string",
          "name": "studentName",
          "type": "string"
        },
        {
          "internalType": "string",
          "name": "prn",
          "type": "string"
        },
        {
          "internalType": "bytes32",
          "name": "marksheetHash",
          "type": "bytes32"
        },
        {
          "internalType": "string",
          "name": "ipfsHash",
          "type": "string"
        }
      ],
      "stateMutability": "view",
      "type": "function"
    },
    {
      "inputs": [
        {
          "internalType": "string",
          "name": "_studentName",
          "type": "string"
        },
        {
          "internalType": "string",
          "name": "_prn",
          "type": "string"
        },
        {
          "internalType": "bytes32",
          "name": "_marksheetHash",
          "type": "bytes32"
        },
        {
          "internalType": "string",
          "name": "_ipfsHash",
          "type": "string"
        }
      ],
      "name": "uploadMarksheet",
      "outputs": [],
      "stateMutability": "nonpayable",
      "type": "function"
    },
    {
      "inputs": [
        {
          "internalType": "string[]",
          "name": "_studentNames",
          "type": "string[]"
        },
        {
          "internalType": "string[]",
          "name": "_prns",
          "type": "string[]"
        },
        {
          "internalType": "bytes32[]",
          "name": "_marksheetHashes",
          "type": "bytes32[]"
        },
        {
          "internalType": "string[]",
          "name": "_ipfsHashes",
          "type": "string[]"
        }
      ],
      "name": "uploadMultipleMarkSheets",
      "outputs": [],
      "stateMutability": "nonpayable",
      "type": "function"
    },
    {
      "inputs": [
        {
          "internalType": "bytes32",
          "name": "_providedHash",
          "type": "bytes32"
        }
      ],
      "name": "verifyMarksheet",
      "outputs": [
        {
          "internalType": "bool",
          "name": "",
          "type": "bool"
        }
      ],
      "stateMutability": "nonpayable",
      "type": "function"
    }
  ],
  "bytecode": "0x608060405234801561001057600080fd5b5061192b806100206000396000f3fe608060405234801561001057600080fd5b50600436106100575760003560e01c8063073dcbd61461005c5780633c14bea61461007857806393d86011146100aa578063a55ebd80146100dd578063c8024cf31461010d575b600080fd5b61007660048036038101906100719190610d77565b610129565b005b610092600480360381019061008d9190610e32565b610313565b6040516100a193929190610ede565b60405180910390f35b6100c460048036038101906100bf9190610e32565b610570565b6040516100d49493929190610f39565b60405180910390f35b6100f760048036038101906100f29190610e32565b610738565b6040516101049190610fae565b60405180910390f35b61012760048036038101906101229190611172565b6107ec565b005b6000801b6000808481526020019081526020016000206002015414610183576040517f08c379a000000000000000000000000000000000000000000000000000000000815260040161017a90611295565b60405180910390fd5b60008451116101c7576040517f08c379a00000000000000000000000000000000000000000000000000000000081526004016101be90611301565b60405180910390fd5b600083511161020b576040517f08c379a00000000000000000000000000000000000000000000000000000000081526004016102029061136d565b60405180910390fd5b600081511161024f576040517f08c379a0000000000000000000000000000000000000000000000000000000008152600401610246906113d9565b60405180910390fd5b6040518060800160405280858152602001848152602001838152602001828152506000808481526020019081526020016000206000820151816000019081610297919061160f565b5060208201518160010190816102ad919061160f565b506040820151816002015560608201518160030190816102cd919061160f565b50905050817fdd5dcbf222aef8b9d7fcaaff69bbcc6b0c91631a1f1bf156fcdacfb1d2d1ed0b85858460405161030593929190610ede565b60405180910390a250505050565b60608060606000801b6000808681526020019081526020016000206002015403610372576040517f08c379a00000000000000000000000000000000000000000000000000000000081526004016103699061172d565b60405180910390fd5b60008060008681526020019081526020016000206040518060800160405290816000820180546103a190611428565b80601f01602080910402602001604051908101604052809291908181526020018280546103cd90611428565b801561041a5780601f106103ef5761010080835404028352916020019161041a565b820191906000526020600020905b8154815290600101906020018083116103fd57829003601f168201915b5050505050815260200160018201805461043390611428565b80601f016020809104026020016040519081016040528092919081815260200182805461045f90611428565b80156104ac5780601f10610481576101008083540402835291602001916104ac565b820191906000526020600020905b81548152906001019060200180831161048f57829003601f168201915b50505050508152602001600282015481526020016003820180546104cf90611428565b80601f01602080910402602001604051908101604052809291908181526020018280546104fb90611428565b80156105485780601f1061051d57610100808354040283529160200191610548565b820191906000526020600020905b81548152906001019060200180831161052b57829003601f168201915b5050505050815250509050806000015181602001518260600151935093509350509193909250565b600060205280600052604060002060009150905080600001805461059390611428565b80601f01602080910402602001604051908101604052809291908181526020018280546105bf90611428565b801561060c5780601f106105e15761010080835404028352916020019161060c565b820191906000526020600020905b8154815290600101906020018083116105ef57829003601f168201915b50505050509080600101805461062190611428565b80601f016020809104026020016040519081016040528092919081815260200182805461064d90611428565b801561069a5780601f1061066f5761010080835404028352916020019161069a565b820191906000526020600020905b81548152906001019060200180831161067d57829003601f168201915b5050505050908060020154908060030180546106b590611428565b80601f01602080910402602001604051908101604052809291908181526020018280546106e190611428565b801561072e5780601f106107035761010080835404028352916020019161072e565b820191906000526020600020905b81548152906001019060200180831161071157829003601f168201915b5050505050905084565b60008060001b6000808481526020019081526020016000206002015403610794576040517f08c379a000000000000000000000000000000000000000000000000000000000815260040161078b9061172d565b60405180910390fd5b813373ffffffffffffffffffffffffffffffffffffffff167f59f56502d3dda330c978152a745d7df39110b2795dc69a0c82de880e452ab4d4426040516107db919061175c565b60405180910390a360019050919050565b825184511480156107fe575081518351145b801561080b575080518251145b61084a576040517f08c379a0000000000000000000000000000000000000000000000000000000008152600401610841906117c3565b60405180910390fd5b6000805b8551811015610ba8576000801b600080868481518110610871576108706117e3565b5b6020026020010151815260200190815260200160002060020154146108cb576040517f08c379a00000000000000000000000000000000000000000000000000000000081526004016108c29061185e565b60405180910390fd5b60008682815181106108e0576108df6117e3565b5b60200260200101515111610929576040517f08c379a000000000000000000000000000000000000000000000000000000000815260040161092090611301565b60405180910390fd5b600085828151811061093e5761093d6117e3565b5b60200260200101515111610987576040517f08c379a000000000000000000000000000000000000000000000000000000000815260040161097e9061136d565b60405180910390fd5b600083828151811061099c5761099b6117e3565b5b602002602001015151116109e5576040517f08c379a00000000000000000000000000000000000000000000000000000000081526004016109dc906113d9565b60405180910390fd5b6040518060800160405280878381518110610a0357610a026117e3565b5b60200260200101518152602001868381518110610a2357610a226117e3565b5b60200260200101518152602001858381518110610a4357610a426117e3565b5b60200260200101518152602001848381518110610a6357610a626117e3565b5b6020026020010151815250600080868481518110610a8457610a836117e3565b5b602002602001015181526020019081526020016000206000820151816000019081610aaf919061160f565b506020820151816001019081610ac5919061160f565b50604082015181600201556060820151816003019081610ae5919061160f565b50905050838181518110610afc57610afb6117e3565b5b60200260200101517fdd5dcbf222aef8b9d7fcaaff69bbcc6b0c91631a1f1bf156fcdacfb1d2d1ed0b878381518110610b3857610b376117e3565b5b6020026020010151878481518110610b5357610b526117e3565b5b6020026020010151868581518110610b6e57610b6d6117e3565b5b6020026020010151604051610b8593929190610ede565b60405180910390a28180610b98906118ad565b925050808060010191505061084e565b507f325d2eb1aec8f7019309a6d6167e5e242224b000bf25b45286e9cfe2e43c956681604051610bd8919061175c565b60405180910390a15050505050565b6000604051905090565b600080fd5b600080fd5b600080fd5b600080fd5b6000601f19601f8301169050919050565b7f4e487b7100000000000000000000000000000000000000000000000000000000600052604160045260246000fd5b610c4e82610c05565b810181811067ffffffffffffffff82111715610c6d57610c6c610c16565b5b80604052505050565b6000610c80610be7565b9050610c8c8282610c45565b919050565b600067ffffffffffffffff821115610cac57610cab610c16565b5b610cb582610c05565b9050602081019050919050565b82818337600083830152505050565b6000610ce4610cdf84610c91565b610c76565b905082815260208101848484011115610d0057610cff610c00565b5b610d0b848285610cc2565b509392505050565b600082601f830112610d2857610d27610bfb565b5b8135610d38848260208601610cd1565b91505092915050565b6000819050919050565b610d5481610d41565b8114610d5f57600080fd5b50565b600081359050610d7181610d4b565b92915050565b60008060008060808587031215610d9157610d90610bf1565b5b600085013567ffffffffffffffff811115610daf57610dae610bf6565b5b610dbb87828801610d13565b945050602085013567ffffffffffffffff811115610ddc57610ddb610bf6565b5b610de887828801610d13565b9350506040610df987828801610d62565b925050606085013567ffffffffffffffff811115610e1a57610e19610bf6565b5b610e2687828801610d13565b91505092959194509250565b600060208284031215610e4857610e47610bf1565b5b6000610e5684828501610d62565b91505092915050565b600081519050919050565b600082825260208201905092915050565b60005b83811015610e99578082015181840152602081019050610e7e565b60008484015250505050565b6000610eb082610e5f565b610eba8185610e6a565b9350610eca818560208601610e7b565b610ed381610c05565b840191505092915050565b60006060820190508181036000830152610ef88186610ea5565b90508181036020830152610f0c8185610ea5565b90508181036040830152610f208184610ea5565b9050949350505050565b610f3381610d41565b82525050565b60006080820190508181036000830152610f538187610ea5565b90508181036020830152610f678186610ea5565b9050610f766040830185610f2a565b8181036060830152610f888184610ea5565b905095945050505050565b60008115159050919050565b610fa881610f93565b82525050565b6000602082019050610fc36000830184610f9f565b92915050565b600067ffffffffffffffff821115610fe457610fe3610c16565b5b602082029050602081019050919050565b600080fd5b600061100d61100884610fc9565b610c76565b905080838252602082019050602084028301858111156110305761102f610ff5565b5b835b8181101561107757803567ffffffffffffffff81111561105557611054610bfb565b5b8086016110628982610d13565b85526020850194505050602081019050611032565b5050509392505050565b600082601f83011261109657611095610bfb565b5b81356110a6848260208601610ffa565b91505092915050565b600067ffffffffffffffff8211156110ca576110c9610c16565b5b602082029050602081019050919050565b60006110ee6110e9846110af565b610c76565b9050808382526020820190506020840283018581111561111157611110610ff5565b5b835b8181101561113a57806111268882610d62565b845260208401935050602081019050611113565b5050509392505050565b600082601f83011261115957611158610bfb565b5b81356111698482602086016110db565b91505092915050565b6000806000806080858703121561118c5761118b610bf1565b5b600085013567ffffffffffffffff8111156111aa576111a9610bf6565b5b6111b687828801611081565b945050602085013567ffffffffffffffff8111156111d7576111d6610bf6565b5b6111e387828801611081565b935050604085013567ffffffffffffffff81111561120457611203610bf6565b5b61121087828801611144565b925050606085013567ffffffffffffffff81111561123157611230610bf6565b5b61123d87828801611081565b91505092959194509250565b7f4d61726b736865657420616c7265616479206578697374730000000000000000600082015250565b600061127f601883610e6a565b915061128a82611249565b602082019050919050565b600060208201905081810360008301526112ae81611272565b9050919050565b7f53747564656e74206e616d652063616e6e6f7420626520656d70747900000000600082015250565b60006112eb601c83610e6a565b91506112f6826112b5565b602082019050919050565b6000602082019050818103600083015261131a816112de565b9050919050565b7f50524e2063616e6e6f7420626520656d70747900000000000000000000000000600082015250565b6000611357601383610e6a565b915061136282611321565b602082019050919050565b600060208201905081810360008301526113868161134a565b9050919050565b7f4950465320686173682063616e6e6f7420626520656d70747900000000000000600082015250565b60006113c3601983610e6a565b91506113ce8261138d565b602082019050919050565b600060208201905081810360008301526113f2816113b6565b9050919050565b7f4e487b7100000000000000000000000000000000000000000000000000000000600052602260045260246000fd5b6000600282049050600182168061144057607f821691505b602082108103611453576114526113f9565b5b50919050565b60008190508160005260206000209050919050565b60006020601f8301049050919050565b600082821b905092915050565b6000600883026114bb7fffffffffffffffffffffffffffffffffffffffffffffffffffffffffffffffff8261147e565b6114c5868361147e565b95508019841693508086168417925050509392505050565b6000819050919050565b6000819050919050565b600061150c611507611502846114dd565b6114e7565b6114dd565b9050919050565b6000819050919050565b611526836114f1565b61153a61153282611513565b84845461148b565b825550505050565b600090565b61154f611542565b61155a81848461151d565b505050565b5b8181101561157e57611573600082611547565b600181019050611560565b5050565b601f8211156115c35761159481611459565b61159d8461146e565b810160208510156115ac578190505b6115c06115b88561146e565b83018261155f565b50505b505050565b600082821c905092915050565b60006115e6600019846008026115c8565b1980831691505092915050565b60006115ff83836115d5565b9150826002028217905092915050565b61161882610e5f565b67ffffffffffffffff81111561163157611630610c16565b5b61163b8254611428565b611646828285611582565b600060209050601f8311600181146116795760008415611667578287015190505b61167185826115f3565b8655506116d9565b601f19841661168786611459565b60005b828110156116af5784890151825560018201915060208501945060208101905061168a565b868310156116cc57848901516116c8601f8916826115d5565b8355505b6001600288020188555050505b505050505050565b7f4d61726b736865657420646f6573206e6f742065786973740000000000000000600082015250565b6000611717601883610e6a565b9150611722826116e1565b602082019050919050565b600060208201905081810360008301526117468161170a565b9050919050565b611756816114dd565b82525050565b6000602082019050611771600083018461174d565b92915050565b7f496e707574206172726179206c656e67746873206d757374206d617463680000600082015250565b60006117ad601e83610e6a565b91506117b882611777565b602082019050919050565b600060208201905081810360008301526117dc816117a0565b9050919050565b7f4e487b7100000000000000000000000000000000000000000000000000000000600052603260045260246000fd5b7f4475706c6963617465206d61726b736865657420646574656374656400000000600082015250565b6000611848601c83610e6a565b915061185382611812565b602082019050919050565b600060208201905081810360008301526118778161183b565b9050919050565b7f4e487b7100000000000000000000000000000000000000000000000000000000600052601160045260246000fd5b60006118b8826114dd565b91507fffffffffffffffffffffffffffffffffffffffffffffffffffffffffffffffff82036118ea576118e961187e565b5b60018201905091905056fea26469706673582212202eed90d543b74ec0433830713caede507224065d1c7f83018d990bbb5577351c64736f6c63430008180033",
  "linkReferences": {},
  "deployedLinkReferences": {}
}