{
  "_format": "hh-sol-artifact-1",
  "contractName": "MarksheetVerification",
  "sourceName": "contracts/MarksheetVerification.sol",
  "abi": [
    {
      "anonymous": false,
      "inputs": [
        {
          "indexed": false,
          "internalType": "uint256",
          "name": "totalUploaded",
          "type": "uint256"
        }
      ],
      "name": "BatchUploadCompleted",
      "type": "event"
    },
    {
      "anonymous": false,
      "inputs": [
        {
          "indexed": true,
          "internalType": "bytes32",
          "name": "marksheetHash",
          "type": "bytes32"
        },
        {
          "indexed": false,
          "internalType": "string",
          "name": "studentName",
          "type": "string"
        },
        {
          "indexed": false,
          "internalType": "string",
          "name": "ipfsHash",
          "type": "string"
        }
      ],
      "name": "MarksheetUploaded",
      "type": "event"
    },
    {
      "anonymous": false,
      "inputs": [
        {
          "indexed": true,
          "internalType": "address",
          "name": "verifier",
          "type": "address"
        },
        {
          "indexed": true,
          "internalType": "bytes32",
          "name": "marksheetHash",
          "type": "bytes32"
        },
        {
          "indexed": false,
          "internalType": "uint256",
          "name": "timestamp",
          "type": "uint256"
        }
      ],
      "name": "VerificationAttempt",
      "type": "event"
    },
    {
      "inputs": [
        {
          "internalType": "bytes32",
          "name": "_providedHash",
          "type": "bytes32"
        }
      ],
      "name": "getMarksheetDetails",
      "outputs": [
        {
          "internalType": "string",
          "name": "",
          "type": "string"
        },
        {
          "internalType": "string",
          "name": "",
          "type": "string"
        }
      ],
      "stateMutability": "view",
      "type": "function"
    },
    {
      "inputs": [
        {
          "internalType": "bytes32",
          "name": "",
          "type": "bytes32"
        }
      ],
      "name": "marksheets",
      "outputs": [
        {
          "internalType": "string",
          "name": "studentName",
          "type": "string"
        },
        {
          "internalType": "bytes32",
          "name": "marksheetHash",
          "type": "bytes32"
        },
        {
          "internalType": "string",
          "name": "ipfsHash",
          "type": "string"
        }
      ],
      "stateMutability": "view",
      "type": "function"
    },
    {
      "inputs": [
        {
          "internalType": "string",
          "name": "_studentName",
          "type": "string"
        },
        {
          "internalType": "bytes32",
          "name": "_marksheetHash",
          "type": "bytes32"
        },
        {
          "internalType": "string",
          "name": "_ipfsHash",
          "type": "string"
        }
      ],
      "name": "uploadMarksheet",
      "outputs": [],
      "stateMutability": "nonpayable",
      "type": "function"
    },
    {
      "inputs": [
        {
          "internalType": "string[]",
          "name": "_studentNames",
          "type": "string[]"
        },
        {
          "internalType": "bytes32[]",
          "name": "_marksheetHashes",
          "type": "bytes32[]"
        },
        {
          "internalType": "string[]",
          "name": "_ipfsHashes",
          "type": "string[]"
        }
      ],
      "name": "uploadMultipleMarkSheets",
      "outputs": [],
      "stateMutability": "nonpayable",
      "type": "function"
    },
    {
      "inputs": [
        {
          "internalType": "bytes32",
          "name": "_providedHash",
          "type": "bytes32"
        }
      ],
      "name": "verifyMarksheet",
      "outputs": [
        {
          "internalType": "bool",
          "name": "",
          "type": "bool"
        }
      ],
      "stateMutability": "nonpayable",
      "type": "function"
    }
  ],
  "bytecode": "0x608060405234801561001057600080fd5b50610c92806100206000396000f3fe608060405234801561001057600080fd5b50600436106100415760003560e01c80636383def514610046578063bc95763614610062578063d555f0cc14610094575b600080fd5b610060600480360381019061005b9190610626565b6100c4565b005b61007c600480360381019061007791906106b1565b6101da565b60405161008b93929190610788565b60405180910390f35b6100ae60048036038101906100a991906107cd565b61032a565b6040516100bb9190610844565b60405180910390f35b6000801b6000836040516100d8919061089b565b9081526020016040518091039020600201541461012a576040517f08c379a000000000000000000000000000000000000000000000000000000000815260040161012190610924565b60405180910390fd5b604051806060016040528084815260200183815260200182815250600083604051610155919061089b565b908152602001604051809103902060008201518160000190816101789190610b5a565b50602082015181600101908161018e9190610b5a565b50604082015181600201559050507feb8839e5d0fe619fc668ed2341684e10b79afd73a177040c6afd24c4f47e65e382826040516101cd929190610c2c565b60405180910390a1505050565b60008180516020810182018051848252602083016020850120818352809550505050505060009150905080600001805461021390610973565b80601f016020809104026020016040519081016040528092919081815260200182805461023f90610973565b801561028c5780601f106102615761010080835404028352916020019161028c565b820191906000526020600020905b81548152906001019060200180831161026f57829003601f168201915b5050505050908060010180546102a190610973565b80601f01602080910402602001604051908101604052809291908181526020018280546102cd90610973565b801561031a5780601f106102ef5761010080835404028352916020019161031a565b820191906000526020600020905b8154815290600101906020018083116102fd57829003601f168201915b5050505050908060020154905083565b60008060008460405161033d919061089b565b908152602001604051809103902060405180606001604052908160008201805461036690610973565b80601f016020809104026020016040519081016040528092919081815260200182805461039290610973565b80156103df5780601f106103b4576101008083540402835291602001916103df565b820191906000526020600020905b8154815290600101906020018083116103c257829003601f168201915b505050505081526020016001820180546103f890610973565b80601f016020809104026020016040519081016040528092919081815260200182805461042490610973565b80156104715780601f1061044657610100808354040283529160200191610471565b820191906000526020600020905b81548152906001019060200180831161045457829003601f168201915b5050505050815260200160028201548152505090508281604001511491505092915050565b6000604051905090565b600080fd5b600080fd5b600080fd5b600080fd5b6000601f19601f8301169050919050565b7f4e487b7100000000000000000000000000000000000000000000000000000000600052604160045260246000fd5b6104fd826104b4565b810181811067ffffffffffffffff8211171561051c5761051b6104c5565b5b80604052505050565b600061052f610496565b905061053b82826104f4565b919050565b600067ffffffffffffffff82111561055b5761055a6104c5565b5b610564826104b4565b9050602081019050919050565b82818337600083830152505050565b600061059361058e84610540565b610525565b9050828152602081018484840111156105af576105ae6104af565b5b6105ba848285610571565b509392505050565b600082601f8301126105d7576105d66104aa565b5b81356105e7848260208601610580565b91505092915050565b6000819050919050565b610603816105f0565b811461060e57600080fd5b50565b600081359050610620816105fa565b92915050565b60008060006060848603121561063f5761063e6104a0565b5b600084013567ffffffffffffffff81111561065d5761065c6104a5565b5b610669868287016105c2565b935050602084013567ffffffffffffffff81111561068a576106896104a5565b5b610696868287016105c2565b92505060406106a786828701610611565b9150509250925092565b6000602082840312156106c7576106c66104a0565b5b600082013567ffffffffffffffff8111156106e5576106e46104a5565b5b6106f1848285016105c2565b91505092915050565b600081519050919050565b600082825260208201905092915050565b60005b83811015610734578082015181840152602081019050610719565b60008484015250505050565b600061074b826106fa565b6107558185610705565b9350610765818560208601610716565b61076e816104b4565b840191505092915050565b610782816105f0565b82525050565b600060608201905081810360008301526107a28186610740565b905081810360208301526107b68185610740565b90506107c56040830184610779565b949350505050565b600080604083850312156107e4576107e36104a0565b5b600083013567ffffffffffffffff811115610802576108016104a5565b5b61080e858286016105c2565b925050602061081f85828601610611565b9150509250929050565b60008115159050919050565b61083e81610829565b82525050565b60006020820190506108596000830184610835565b92915050565b600081905092915050565b6000610875826106fa565b61087f818561085f565b935061088f818560208601610716565b80840191505092915050565b60006108a7828461086a565b915081905092915050565b7f4d61726b736865657420666f7220746869732073747564656e7420697320616c60008201527f72656164792075706c6f616465642e0000000000000000000000000000000000602082015250565b600061090e602f83610705565b9150610919826108b2565b604082019050919050565b6000602082019050818103600083015261093d81610901565b9050919050565b7f4e487b7100000000000000000000000000000000000000000000000000000000600052602260045260246000fd5b6000600282049050600182168061098b57607f821691505b60208210810361099e5761099d610944565b5b50919050565b60008190508160005260206000209050919050565b60006020601f8301049050919050565b600082821b905092915050565b600060088302610a067fffffffffffffffffffffffffffffffffffffffffffffffffffffffffffffffff826109c9565b610a1086836109c9565b95508019841693508086168417925050509392505050565b6000819050919050565b6000819050919050565b6000610a57610a52610a4d84610a28565b610a32565b610a28565b9050919050565b6000819050919050565b610a7183610a3c565b610a85610a7d82610a5e565b8484546109d6565b825550505050565b600090565b610a9a610a8d565b610aa5818484610a68565b505050565b5b81811015610ac957610abe600082610a92565b600181019050610aab565b5050565b601f821115610b0e57610adf816109a4565b610ae8846109b9565b81016020851015610af7578190505b610b0b610b03856109b9565b830182610aaa565b50505b505050565b600082821c905092915050565b6000610b3160001984600802610b13565b1980831691505092915050565b6000610b4a8383610b20565b9150826002028217905092915050565b610b63826106fa565b67ffffffffffffffff811115610b7c57610b7b6104c5565b5b610b868254610973565b610b91828285610acd565b600060209050601f831160018114610bc45760008415610bb2578287015190505b610bbc8582610b3e565b865550610c24565b601f198416610bd2866109a4565b60005b82811015610bfa57848901518255600182019150602085019450602081019050610bd5565b86831015610c175784890151610c13601f891682610b20565b8355505b6001600288020188555050505b505050505050565b60006040820190508181036000830152610c468185610740565b9050610c556020830184610779565b939250505056fea264697066735822122099f009e334d7ad3ff81d5325ee33f67d2fa475316667baf1cb02a022471d807f64736f6c63430008180033",
  "linkReferences": {},
  "deployedLinkReferences": {}
}